{
  "_format": "hh-sol-artifact-1",
  "contractName": "MyEpicNFT",
  "sourceName": "contracts/MyEpicNFT.sol",
  "abi": [
    {
      "inputs": [],
      "stateMutability": "nonpayable",
      "type": "constructor"
    },
    {
      "anonymous": false,
      "inputs": [
        {
          "indexed": true,
          "internalType": "address",
          "name": "owner",
          "type": "address"
        },
        {
          "indexed": true,
          "internalType": "address",
          "name": "approved",
          "type": "address"
        },
        {
          "indexed": true,
          "internalType": "uint256",
          "name": "tokenId",
          "type": "uint256"
        }
      ],
      "name": "Approval",
      "type": "event"
    },
    {
      "anonymous": false,
      "inputs": [
        {
          "indexed": true,
          "internalType": "address",
          "name": "owner",
          "type": "address"
        },
        {
          "indexed": true,
          "internalType": "address",
          "name": "operator",
          "type": "address"
        },
        {
          "indexed": false,
          "internalType": "bool",
          "name": "approved",
          "type": "bool"
        }
      ],
      "name": "ApprovalForAll",
      "type": "event"
    },
    {
      "anonymous": false,
      "inputs": [
        {
          "indexed": false,
          "internalType": "address",
          "name": "sender",
          "type": "address"
        },
        {
          "indexed": false,
          "internalType": "uint256",
          "name": "tokenId",
          "type": "uint256"
        }
      ],
      "name": "NewEpicNFTMinted",
      "type": "event"
    },
    {
      "anonymous": false,
      "inputs": [
        {
          "indexed": true,
          "internalType": "address",
          "name": "previousOwner",
          "type": "address"
        },
        {
          "indexed": true,
          "internalType": "address",
          "name": "newOwner",
          "type": "address"
        }
      ],
      "name": "OwnershipTransferred",
      "type": "event"
    },
    {
      "anonymous": false,
      "inputs": [
        {
          "indexed": true,
          "internalType": "address",
          "name": "from",
          "type": "address"
        },
        {
          "indexed": true,
          "internalType": "address",
          "name": "to",
          "type": "address"
        },
        {
          "indexed": true,
          "internalType": "uint256",
          "name": "tokenId",
          "type": "uint256"
        }
      ],
      "name": "Transfer",
      "type": "event"
    },
    {
      "inputs": [
        {
          "internalType": "address",
          "name": "to",
          "type": "address"
        },
        {
          "internalType": "uint256",
          "name": "tokenId",
          "type": "uint256"
        }
      ],
      "name": "approve",
      "outputs": [],
      "stateMutability": "nonpayable",
      "type": "function"
    },
    {
      "inputs": [
        {
          "internalType": "address",
          "name": "owner",
          "type": "address"
        }
      ],
      "name": "balanceOf",
      "outputs": [
        {
          "internalType": "uint256",
          "name": "",
          "type": "uint256"
        }
      ],
      "stateMutability": "view",
      "type": "function"
    },
    {
      "inputs": [
        {
          "internalType": "uint256",
          "name": "tokenId",
          "type": "uint256"
        }
      ],
      "name": "getApproved",
      "outputs": [
        {
          "internalType": "address",
          "name": "",
          "type": "address"
        }
      ],
      "stateMutability": "view",
      "type": "function"
    },
    {
      "inputs": [
        {
          "internalType": "address",
          "name": "owner",
          "type": "address"
        },
        {
          "internalType": "address",
          "name": "operator",
          "type": "address"
        }
      ],
      "name": "isApprovedForAll",
      "outputs": [
        {
          "internalType": "bool",
          "name": "",
          "type": "bool"
        }
      ],
      "stateMutability": "view",
      "type": "function"
    },
    {
      "inputs": [],
      "name": "makeAnEpicNFT",
      "outputs": [],
      "stateMutability": "nonpayable",
      "type": "function"
    },
    {
      "inputs": [],
      "name": "maxSupply",
      "outputs": [
        {
          "internalType": "uint256",
          "name": "",
          "type": "uint256"
        }
      ],
      "stateMutability": "view",
      "type": "function"
    },
    {
      "inputs": [],
      "name": "name",
      "outputs": [
        {
          "internalType": "string",
          "name": "",
          "type": "string"
        }
      ],
      "stateMutability": "view",
      "type": "function"
    },
    {
      "inputs": [],
      "name": "owner",
      "outputs": [
        {
          "internalType": "address",
          "name": "",
          "type": "address"
        }
      ],
      "stateMutability": "view",
      "type": "function"
    },
    {
      "inputs": [
        {
          "internalType": "uint256",
          "name": "tokenId",
          "type": "uint256"
        }
      ],
      "name": "ownerOf",
      "outputs": [
        {
          "internalType": "address",
          "name": "",
          "type": "address"
        }
      ],
      "stateMutability": "view",
      "type": "function"
    },
    {
      "inputs": [
        {
          "internalType": "uint256",
          "name": "tokenId",
          "type": "uint256"
        }
      ],
      "name": "pickRandomFirstWord",
      "outputs": [
        {
          "internalType": "string",
          "name": "",
          "type": "string"
        }
      ],
      "stateMutability": "view",
      "type": "function"
    },
    {
      "inputs": [
        {
          "internalType": "uint256",
          "name": "tokenId",
          "type": "uint256"
        }
      ],
      "name": "pickRandomSecondWord",
      "outputs": [
        {
          "internalType": "string",
          "name": "",
          "type": "string"
        }
      ],
      "stateMutability": "view",
      "type": "function"
    },
    {
      "inputs": [
        {
          "internalType": "uint256",
          "name": "tokenId",
          "type": "uint256"
        }
      ],
      "name": "pickRandomThirdWord",
      "outputs": [
        {
          "internalType": "string",
          "name": "",
          "type": "string"
        }
      ],
      "stateMutability": "view",
      "type": "function"
    },
    {
      "inputs": [],
      "name": "renounceOwnership",
      "outputs": [],
      "stateMutability": "nonpayable",
      "type": "function"
    },
    {
      "inputs": [
        {
          "internalType": "address",
          "name": "from",
          "type": "address"
        },
        {
          "internalType": "address",
          "name": "to",
          "type": "address"
        },
        {
          "internalType": "uint256",
          "name": "tokenId",
          "type": "uint256"
        }
      ],
      "name": "safeTransferFrom",
      "outputs": [],
      "stateMutability": "nonpayable",
      "type": "function"
    },
    {
      "inputs": [
        {
          "internalType": "address",
          "name": "from",
          "type": "address"
        },
        {
          "internalType": "address",
          "name": "to",
          "type": "address"
        },
        {
          "internalType": "uint256",
          "name": "tokenId",
          "type": "uint256"
        },
        {
          "internalType": "bytes",
          "name": "data",
          "type": "bytes"
        }
      ],
      "name": "safeTransferFrom",
      "outputs": [],
      "stateMutability": "nonpayable",
      "type": "function"
    },
    {
      "inputs": [
        {
          "internalType": "address",
          "name": "operator",
          "type": "address"
        },
        {
          "internalType": "bool",
          "name": "approved",
          "type": "bool"
        }
      ],
      "name": "setApprovalForAll",
      "outputs": [],
      "stateMutability": "nonpayable",
      "type": "function"
    },
    {
      "inputs": [
        {
          "internalType": "uint256",
          "name": "value",
          "type": "uint256"
        }
      ],
      "name": "setMaxSupply",
      "outputs": [],
      "stateMutability": "nonpayable",
      "type": "function"
    },
    {
      "inputs": [
        {
          "internalType": "bytes4",
          "name": "interfaceId",
          "type": "bytes4"
        }
      ],
      "name": "supportsInterface",
      "outputs": [
        {
          "internalType": "bool",
          "name": "",
          "type": "bool"
        }
      ],
      "stateMutability": "view",
      "type": "function"
    },
    {
      "inputs": [],
      "name": "symbol",
      "outputs": [
        {
          "internalType": "string",
          "name": "",
          "type": "string"
        }
      ],
      "stateMutability": "view",
      "type": "function"
    },
    {
      "inputs": [
        {
          "internalType": "uint256",
          "name": "tokenId",
          "type": "uint256"
        }
      ],
      "name": "tokenURI",
      "outputs": [
        {
          "internalType": "string",
          "name": "",
          "type": "string"
        }
      ],
      "stateMutability": "view",
      "type": "function"
    },
    {
      "inputs": [],
      "name": "totalSupply",
      "outputs": [
        {
          "internalType": "uint256",
          "name": "",
          "type": "uint256"
        }
      ],
      "stateMutability": "view",
      "type": "function"
    },
    {
      "inputs": [
        {
          "internalType": "address",
          "name": "from",
          "type": "address"
        },
        {
          "internalType": "address",
          "name": "to",
          "type": "address"
        },
        {
          "internalType": "uint256",
          "name": "tokenId",
          "type": "uint256"
        }
      ],
      "name": "transferFrom",
      "outputs": [],
      "stateMutability": "nonpayable",
      "type": "function"
    },
    {
      "inputs": [
        {
          "internalType": "address",
          "name": "newOwner",
          "type": "address"
        }
      ],
      "name": "transferOwnership",
      "outputs": [],
      "stateMutability": "nonpayable",
      "type": "function"
    }
  ],
  "bytecode": "0x6080604052603260095560405180610160016040528061012f815260200162004d6f61012f9139600a908162000036919062000d8a565b506040518061014001604052806040518060400160405280600581526020017f53686f6f7400000000000000000000000000000000000000000000000000000081525081526020016040518060400160405280600481526020017f5461736b0000000000000000000000000000000000000000000000000000000081525081526020016040518060400160405280600681526020017f436f75706c65000000000000000000000000000000000000000000000000000081525081526020016040518060400160405280600681526020017f53656e696f72000000000000000000000000000000000000000000000000000081525081526020016040518060400160405280600681526020017f41747461636b000000000000000000000000000000000000000000000000000081525081526020016040518060400160405280600381526020017f426564000000000000000000000000000000000000000000000000000000000081525081526020016040518060400160405280600681526020017f417373756d65000000000000000000000000000000000000000000000000000081525081526020016040518060400160405280600481526020017f4e6577730000000000000000000000000000000000000000000000000000000081525081526020016040518060400160405280600581526020017f447269766500000000000000000000000000000000000000000000000000000081525081526020016040518060400160405280600781526020017f5175616c69747900000000000000000000000000000000000000000000000000815250815250600b90600a620002a192919062000a23565b506040518061014001604052806040518060400160405280600681526020017f426568696e64000000000000000000000000000000000000000000000000000081525081526020016040518060400160405280600481526020017f426f64790000000000000000000000000000000000000000000000000000000081525081526020016040518060400160405280600581526020017f46726f6e7400000000000000000000000000000000000000000000000000000081525081526020016040518060400160405280600481526020017f596561720000000000000000000000000000000000000000000000000000000081525081526020016040518060400160405280600581526020017f546872656500000000000000000000000000000000000000000000000000000081525081526020016040518060400160405280600a81526020017f45766572797468696e670000000000000000000000000000000000000000000081525081526020016040518060400160405280600481526020017f486561640000000000000000000000000000000000000000000000000000000081525081526020016040518060400160405280600681526020017f4d6964646c65000000000000000000000000000000000000000000000000000081525081526020016040518060400160405280600581526020017f486170707900000000000000000000000000000000000000000000000000000081525081526020016040518060400160405280600a81526020017f45766572797468696e6700000000000000000000000000000000000000000000815250815250600c90600a6200050c92919062000a23565b506040518061014001604052806040518060400160405280600481526020017f507573680000000000000000000000000000000000000000000000000000000081525081526020016040518060400160405280600581526020017f427265616b00000000000000000000000000000000000000000000000000000081525081526020016040518060400160405280600381526020017f54656e000000000000000000000000000000000000000000000000000000000081525081526020016040518060400160405280600581526020017f426567696e00000000000000000000000000000000000000000000000000000081525081526020016040518060400160405280600581526020017f556e74696c00000000000000000000000000000000000000000000000000000081525081526020016040518060400160405280600481526020017f4576656e0000000000000000000000000000000000000000000000000000000081525081526020016040518060400160405280600581526020017f426f61726400000000000000000000000000000000000000000000000000000081525081526020016040518060400160405280600581526020017f4f7264657200000000000000000000000000000000000000000000000000000081525081526020016040518060400160405280600481526020017f4c6561640000000000000000000000000000000000000000000000000000000081525081526020016040518060400160405280600681526020017f4d6f6d656e740000000000000000000000000000000000000000000000000000815250815250600d90600a6200077792919062000a23565b503480156200078557600080fd5b506040518060400160405280600981526020017f5371756172654e465400000000000000000000000000000000000000000000008152506040518060400160405280600681526020017f5351554152450000000000000000000000000000000000000000000000000000815250816000908162000803919062000d8a565b50806001908162000815919062000d8a565b505050620008386200082c6200088960201b60201c565b6200089160201b60201c565b620008836040518060400160405280601881526020017f54686973206973206d79204e465420636f6e74726163742e00000000000000008152506200095760201b620011b41760201c565b62000f24565b600033905090565b6000600760009054906101000a900473ffffffffffffffffffffffffffffffffffffffff16905081600760006101000a81548173ffffffffffffffffffffffffffffffffffffffff021916908373ffffffffffffffffffffffffffffffffffffffff1602179055508173ffffffffffffffffffffffffffffffffffffffff168173ffffffffffffffffffffffffffffffffffffffff167f8be0079c531659141344cd1fd0a4f28419497f9722a3daafe3b4186f6b6457e060405160405180910390a35050565b620009f7816040516024016200096e919062000f00565b6040516020818303038152906040527f41304fac000000000000000000000000000000000000000000000000000000007bffffffffffffffffffffffffffffffffffffffffffffffffffffffff19166020820180517bffffffffffffffffffffffffffffffffffffffffffffffffffffffff8381831617835250505050620009fa60201b60201c565b50565b60008151905060006a636f6e736f6c652e6c6f679050602083016000808483855afa5050505050565b82805482825590600052602060002090810192821562000a70579160200282015b8281111562000a6f57825182908162000a5e919062000d8a565b509160200191906001019062000a44565b5b50905062000a7f919062000a83565b5090565b5b8082111562000aa7576000818162000a9d919062000aab565b5060010162000a84565b5090565b50805462000ab99062000b79565b6000825580601f1062000acd575062000aee565b601f01602090049060005260206000209081019062000aed919062000af1565b5b50565b5b8082111562000b0c57600081600090555060010162000af2565b5090565b600081519050919050565b7f4e487b7100000000000000000000000000000000000000000000000000000000600052604160045260246000fd5b7f4e487b7100000000000000000000000000000000000000000000000000000000600052602260045260246000fd5b6000600282049050600182168062000b9257607f821691505b60208210810362000ba85762000ba762000b4a565b5b50919050565b60008190508160005260206000209050919050565b60006020601f8301049050919050565b600082821b905092915050565b60006008830262000c127fffffffffffffffffffffffffffffffffffffffffffffffffffffffffffffffff8262000bd3565b62000c1e868362000bd3565b95508019841693508086168417925050509392505050565b6000819050919050565b6000819050919050565b600062000c6b62000c6562000c5f8462000c36565b62000c40565b62000c36565b9050919050565b6000819050919050565b62000c878362000c4a565b62000c9f62000c968262000c72565b84845462000be0565b825550505050565b600090565b62000cb662000ca7565b62000cc381848462000c7c565b505050565b5b8181101562000ceb5762000cdf60008262000cac565b60018101905062000cc9565b5050565b601f82111562000d3a5762000d048162000bae565b62000d0f8462000bc3565b8101602085101562000d1f578190505b62000d3762000d2e8562000bc3565b83018262000cc8565b50505b505050565b600082821c905092915050565b600062000d5f6000198460080262000d3f565b1980831691505092915050565b600062000d7a838362000d4c565b9150826002028217905092915050565b62000d958262000b10565b67ffffffffffffffff81111562000db15762000db062000b1b565b5b62000dbd825462000b79565b62000dca82828562000cef565b600060209050601f83116001811462000e02576000841562000ded578287015190505b62000df9858262000d6c565b86555062000e69565b601f19841662000e128662000bae565b60005b8281101562000e3c5784890151825560018201915060208501945060208101905062000e15565b8683101562000e5c578489015162000e58601f89168262000d4c565b8355505b6001600288020188555050505b505050505050565b600082825260208201905092915050565b60005b8381101562000ea257808201518184015260208101905062000e85565b60008484015250505050565b6000601f19601f8301169050919050565b600062000ecc8262000b10565b62000ed8818562000e71565b935062000eea81856020860162000e82565b62000ef58162000eae565b840191505092915050565b6000602082019050818103600083015262000f1c818462000ebf565b905092915050565b613e3b8062000f346000396000f3fe608060405234801561001057600080fd5b506004361061014d5760003560e01c8063715018a6116100c3578063c575757a1161007c578063c575757a1461039c578063c87b56dd146103cc578063d5abeb01146103fc578063de9d132f1461041a578063e985e9c514610424578063f2fde38b146104545761014d565b8063715018a6146102ee5780638da5cb5b146102f857806395d89b4114610316578063a22cb46514610334578063b187301f14610350578063b88d4fde146103805761014d565b806323b872dd1161011557806323b872dd1461020a5780632de38d681461022657806342842e0e146102565780636352211e146102725780636f8b44b0146102a257806370a08231146102be5761014d565b806301ffc9a71461015257806306fdde0314610182578063081812fc146101a0578063095ea7b3146101d057806318160ddd146101ec575b600080fd5b61016c600480360381019061016791906125f2565b610470565b604051610179919061263a565b60405180910390f35b61018a610552565b60405161019791906126e5565b60405180910390f35b6101ba60048036038101906101b5919061273d565b6105e4565b6040516101c791906127ab565b60405180910390f35b6101ea60048036038101906101e591906127f2565b61062a565b005b6101f4610741565b6040516102019190612841565b60405180910390f35b610224600480360381019061021f919061285c565b610752565b005b610240600480360381019061023b919061273d565b6107b2565b60405161024d91906126e5565b60405180910390f35b610270600480360381019061026b919061285c565b610928565b005b61028c6004803603810190610287919061273d565b610948565b60405161029991906127ab565b60405180910390f35b6102bc60048036038101906102b7919061273d565b6109ce565b005b6102d860048036038101906102d391906128af565b6109e0565b6040516102e59190612841565b60405180910390f35b6102f6610a97565b005b610300610aab565b60405161030d91906127ab565b60405180910390f35b61031e610ad5565b60405161032b91906126e5565b60405180910390f35b61034e60048036038101906103499190612908565b610b67565b005b61036a6004803603810190610365919061273d565b610b7d565b60405161037791906126e5565b60405180910390f35b61039a60048036038101906103959190612a7d565b610c75565b005b6103b660048036038101906103b1919061273d565b610cd7565b6040516103c391906126e5565b60405180910390f35b6103e660048036038101906103e1919061273d565b610dcf565b6040516103f391906126e5565b60405180910390f35b610404610ee1565b6040516104119190612841565b60405180910390f35b610422610eeb565b005b61043e60048036038101906104399190612b00565b61109d565b60405161044b919061263a565b60405180910390f35b61046e600480360381019061046991906128af565b611131565b005b60007f80ac58cd000000000000000000000000000000000000000000000000000000007bffffffffffffffffffffffffffffffffffffffffffffffffffffffff1916827bffffffffffffffffffffffffffffffffffffffffffffffffffffffff1916148061053b57507f5b5e139f000000000000000000000000000000000000000000000000000000007bffffffffffffffffffffffffffffffffffffffffffffffffffffffff1916827bffffffffffffffffffffffffffffffffffffffffffffffffffffffff1916145b8061054b575061054a8261124d565b5b9050919050565b60606000805461056190612b6f565b80601f016020809104026020016040519081016040528092919081815260200182805461058d90612b6f565b80156105da5780601f106105af576101008083540402835291602001916105da565b820191906000526020600020905b8154815290600101906020018083116105bd57829003601f168201915b5050505050905090565b60006105ef826112b7565b6004600083815260200190815260200160002060009054906101000a900473ffffffffffffffffffffffffffffffffffffffff169050919050565b600061063582610948565b90508073ffffffffffffffffffffffffffffffffffffffff168373ffffffffffffffffffffffffffffffffffffffff16036106a5576040517f08c379a000000000000000000000000000000000000000000000000000000000815260040161069c90612c12565b60405180910390fd5b8073ffffffffffffffffffffffffffffffffffffffff166106c4611302565b73ffffffffffffffffffffffffffffffffffffffff1614806106f357506106f2816106ed611302565b61109d565b5b610732576040517f08c379a000000000000000000000000000000000000000000000000000000000815260040161072990612ca4565b60405180910390fd5b61073c838361130a565b505050565b600061074d60086113c3565b905090565b61076361075d611302565b826113d1565b6107a2576040517f08c379a000000000000000000000000000000000000000000000000000000000815260040161079990612d36565b60405180910390fd5b6107ad838383611466565b505050565b606060006107e66107c28461175f565b6040516020016107d29190612dde565b60405160208183030381529060405261182d565b90506108276040518060400160405280600b81526020017f72616e6420736565643a2000000000000000000000000000000000000000000081525082611860565b600b80549050816108389190612e2f565b90506108796040518060400160405280601181526020017f72616e6420666972737420776f72643a2000000000000000000000000000000081525082611860565b600b818154811061088d5761088c612e60565b5b9060005260206000200180546108a290612b6f565b80601f01602080910402602001604051908101604052809291908181526020018280546108ce90612b6f565b801561091b5780601f106108f05761010080835404028352916020019161091b565b820191906000526020600020905b8154815290600101906020018083116108fe57829003601f168201915b5050505050915050919050565b61094383838360405180602001604052806000815250610c75565b505050565b600080610954836118fc565b9050600073ffffffffffffffffffffffffffffffffffffffff168173ffffffffffffffffffffffffffffffffffffffff16036109c5576040517f08c379a00000000000000000000000000000000000000000000000000000000081526004016109bc90612edb565b60405180910390fd5b80915050919050565b6109d6611939565b8060098190555050565b60008073ffffffffffffffffffffffffffffffffffffffff168273ffffffffffffffffffffffffffffffffffffffff1603610a50576040517f08c379a0000000000000000000000000000000000000000000000000000000008152600401610a4790612f6d565b60405180910390fd5b600360008373ffffffffffffffffffffffffffffffffffffffff1673ffffffffffffffffffffffffffffffffffffffff168152602001908152602001600020549050919050565b610a9f611939565b610aa960006119b7565b565b6000600760009054906101000a900473ffffffffffffffffffffffffffffffffffffffff16905090565b606060018054610ae490612b6f565b80601f0160208091040260200160405190810160405280929190818152602001828054610b1090612b6f565b8015610b5d5780601f10610b3257610100808354040283529160200191610b5d565b820191906000526020600020905b815481529060010190602001808311610b4057829003601f168201915b5050505050905090565b610b79610b72611302565b8383611a7d565b5050565b60606000610bb1610b8d8461175f565b604051602001610b9d9190612fd9565b60405160208183030381529060405261182d565b9050600c8054905081610bc49190612e2f565b9050600c8181548110610bda57610bd9612e60565b5b906000526020600020018054610bef90612b6f565b80601f0160208091040260200160405190810160405280929190818152602001828054610c1b90612b6f565b8015610c685780601f10610c3d57610100808354040283529160200191610c68565b820191906000526020600020905b815481529060010190602001808311610c4b57829003601f168201915b5050505050915050919050565b610c86610c80611302565b836113d1565b610cc5576040517f08c379a0000000000000000000000000000000000000000000000000000000008152600401610cbc90612d36565b60405180910390fd5b610cd184848484611be9565b50505050565b60606000610d0b610ce78461175f565b604051602001610cf79190613047565b60405160208183030381529060405261182d565b9050600d8054905081610d1e9190612e2f565b9050600d8181548110610d3457610d33612e60565b5b906000526020600020018054610d4990612b6f565b80601f0160208091040260200160405190810160405280929190818152602001828054610d7590612b6f565b8015610dc25780601f10610d9757610100808354040283529160200191610dc2565b820191906000526020600020905b815481529060010190602001808311610da557829003601f168201915b5050505050915050919050565b6060610dda826112b7565b6000600660008481526020019081526020016000208054610dfa90612b6f565b80601f0160208091040260200160405190810160405280929190818152602001828054610e2690612b6f565b8015610e735780601f10610e4857610100808354040283529160200191610e73565b820191906000526020600020905b815481529060010190602001808311610e5657829003601f168201915b505050505090506000610e84611c45565b90506000815103610e99578192505050610edc565b600082511115610ece578082604051602001610eb6929190613069565b60405160208183030381529060405292505050610edc565b610ed784611c5c565b925050505b919050565b6000600954905090565b610ef3610ee1565b610efb610741565b10610f3b576040517f08c379a0000000000000000000000000000000000000000000000000000000008152600401610f32906130d9565b60405180910390fd5b610f456008611cc4565b6000610f5160086113c3565b90506000610f5e826107b2565b90506000610f6b83610b7d565b90506000610f7884610cd7565b90506000838383604051602001610f91939291906130f9565b60405160208183030381529060405290506000600a82604051602001610fb892919061320e565b60405160208183030381529060405290506000610ffd83610fd884611cda565b604051602001610fe9929190613393565b604051602081830303815290604052611cda565b90506000816040516020016110129190613424565b604051602081830303815290604052905061102d3389611e71565b6110378882611e8f565b61105a604051806060016040528060258152602001613da1602591398933611efc565b7febb98688741ffa4c7589bf325de30cf7becb63de567842e1ccdb6cb949fdc82c338960405161108b929190613446565b60405180910390a15050505050505050565b6000600560008473ffffffffffffffffffffffffffffffffffffffff1673ffffffffffffffffffffffffffffffffffffffff16815260200190815260200160002060008373ffffffffffffffffffffffffffffffffffffffff1673ffffffffffffffffffffffffffffffffffffffff16815260200190815260200160002060009054906101000a900460ff16905092915050565b611139611939565b600073ffffffffffffffffffffffffffffffffffffffff168173ffffffffffffffffffffffffffffffffffffffff16036111a8576040517f08c379a000000000000000000000000000000000000000000000000000000000815260040161119f906134e1565b60405180910390fd5b6111b1816119b7565b50565b61124a816040516024016111c891906126e5565b6040516020818303038152906040527f41304fac000000000000000000000000000000000000000000000000000000007bffffffffffffffffffffffffffffffffffffffffffffffffffffffff19166020820180517bffffffffffffffffffffffffffffffffffffffffffffffffffffffff8381831617835250505050611f9b565b50565b60007f01ffc9a7000000000000000000000000000000000000000000000000000000007bffffffffffffffffffffffffffffffffffffffffffffffffffffffff1916827bffffffffffffffffffffffffffffffffffffffffffffffffffffffff1916149050919050565b6112c081611fc4565b6112ff576040517f08c379a00000000000000000000000000000000000000000000000000000000081526004016112f690612edb565b60405180910390fd5b50565b600033905090565b816004600083815260200190815260200160002060006101000a81548173ffffffffffffffffffffffffffffffffffffffff021916908373ffffffffffffffffffffffffffffffffffffffff160217905550808273ffffffffffffffffffffffffffffffffffffffff1661137d83610948565b73ffffffffffffffffffffffffffffffffffffffff167f8c5be1e5ebec7d5bd14f71427d1e84f3dd0314c0f7b2291e5b200ac8c7c3b92560405160405180910390a45050565b600081600001549050919050565b6000806113dd83610948565b90508073ffffffffffffffffffffffffffffffffffffffff168473ffffffffffffffffffffffffffffffffffffffff16148061141f575061141e818561109d565b5b8061145d57508373ffffffffffffffffffffffffffffffffffffffff16611445846105e4565b73ffffffffffffffffffffffffffffffffffffffff16145b91505092915050565b8273ffffffffffffffffffffffffffffffffffffffff1661148682610948565b73ffffffffffffffffffffffffffffffffffffffff16146114dc576040517f08c379a00000000000000000000000000000000000000000000000000000000081526004016114d390613573565b60405180910390fd5b600073ffffffffffffffffffffffffffffffffffffffff168273ffffffffffffffffffffffffffffffffffffffff160361154b576040517f08c379a000000000000000000000000000000000000000000000000000000000815260040161154290613605565b60405180910390fd5b6115588383836001612005565b8273ffffffffffffffffffffffffffffffffffffffff1661157882610948565b73ffffffffffffffffffffffffffffffffffffffff16146115ce576040517f08c379a00000000000000000000000000000000000000000000000000000000081526004016115c590613573565b60405180910390fd5b6004600082815260200190815260200160002060006101000a81549073ffffffffffffffffffffffffffffffffffffffff02191690556001600360008573ffffffffffffffffffffffffffffffffffffffff1673ffffffffffffffffffffffffffffffffffffffff168152602001908152602001600020600082825403925050819055506001600360008473ffffffffffffffffffffffffffffffffffffffff1673ffffffffffffffffffffffffffffffffffffffff16815260200190815260200160002060008282540192505081905550816002600083815260200190815260200160002060006101000a81548173ffffffffffffffffffffffffffffffffffffffff021916908373ffffffffffffffffffffffffffffffffffffffff160217905550808273ffffffffffffffffffffffffffffffffffffffff168473ffffffffffffffffffffffffffffffffffffffff167fddf252ad1be2c89b69c2b068fc378daa952ba7f163c4a11628f55a4df523b3ef60405160405180910390a461175a838383600161200b565b505050565b60606000600161176e84612011565b01905060008167ffffffffffffffff81111561178d5761178c612952565b5b6040519080825280601f01601f1916602001820160405280156117bf5781602001600182028036833780820191505090505b509050600082602001820190505b600115611822578080600190039150507f3031323334353637383961626364656600000000000000000000000000000000600a86061a8153600a858161181657611815612e00565b5b049450600085036117cd575b819350505050919050565b6000816040516020016118409190613625565b6040516020818303038152906040528051906020012060001c9050919050565b6118f8828260405160240161187692919061363c565b6040516020818303038152906040527fb60e72cc000000000000000000000000000000000000000000000000000000007bffffffffffffffffffffffffffffffffffffffffffffffffffffffff19166020820180517bffffffffffffffffffffffffffffffffffffffffffffffffffffffff8381831617835250505050611f9b565b5050565b60006002600083815260200190815260200160002060009054906101000a900473ffffffffffffffffffffffffffffffffffffffff169050919050565b611941611302565b73ffffffffffffffffffffffffffffffffffffffff1661195f610aab565b73ffffffffffffffffffffffffffffffffffffffff16146119b5576040517f08c379a00000000000000000000000000000000000000000000000000000000081526004016119ac906136b8565b60405180910390fd5b565b6000600760009054906101000a900473ffffffffffffffffffffffffffffffffffffffff16905081600760006101000a81548173ffffffffffffffffffffffffffffffffffffffff021916908373ffffffffffffffffffffffffffffffffffffffff1602179055508173ffffffffffffffffffffffffffffffffffffffff168173ffffffffffffffffffffffffffffffffffffffff167f8be0079c531659141344cd1fd0a4f28419497f9722a3daafe3b4186f6b6457e060405160405180910390a35050565b8173ffffffffffffffffffffffffffffffffffffffff168373ffffffffffffffffffffffffffffffffffffffff1603611aeb576040517f08c379a0000000000000000000000000000000000000000000000000000000008152600401611ae290613724565b60405180910390fd5b80600560008573ffffffffffffffffffffffffffffffffffffffff1673ffffffffffffffffffffffffffffffffffffffff16815260200190815260200160002060008473ffffffffffffffffffffffffffffffffffffffff1673ffffffffffffffffffffffffffffffffffffffff16815260200190815260200160002060006101000a81548160ff0219169083151502179055508173ffffffffffffffffffffffffffffffffffffffff168373ffffffffffffffffffffffffffffffffffffffff167f17307eab39ab6107e8899845ad3d59bd9653f200f220920489ca2b5937696c3183604051611bdc919061263a565b60405180910390a3505050565b611bf4848484611466565b611c0084848484612164565b611c3f576040517f08c379a0000000000000000000000000000000000000000000000000000000008152600401611c36906137b6565b60405180910390fd5b50505050565b606060405180602001604052806000815250905090565b6060611c67826112b7565b6000611c71611c45565b90506000815111611c915760405180602001604052806000815250611cbc565b80611c9b8461175f565b604051602001611cac929190613069565b6040516020818303038152906040525b915050919050565b6001816000016000828254019250508190555050565b606060008251905060008103611d025760405180602001604052806000815250915050611e6c565b60006003600283611d139190613805565b611d1d9190613839565b6004611d29919061386a565b90506000602082611d3a9190613805565b67ffffffffffffffff811115611d5357611d52612952565b5b6040519080825280601f01601f191660200182016040528015611d855781602001600182028036833780820191505090505b5090506000604051806060016040528060408152602001613dc6604091399050600181016020830160005b86811015611e295760038101905062ffffff818a015116603f8160121c168401518060081b905060ff603f83600c1c1686015116810190508060081b905060ff603f8360061c1686015116810190508060081b905060ff603f831686015116810190508060e01b90508084526004840193505050611db0565b506003860660018114611e435760028114611e5357611e5e565b613d3d60f01b6002830352611e5e565b603d60f81b60018303525b508484525050819450505050505b919050565b611e8b8282604051806020016040528060008152506122eb565b5050565b611e9882611fc4565b611ed7576040517f08c379a0000000000000000000000000000000000000000000000000000000008152600401611ece9061391e565b60405180910390fd5b80600660008481526020019081526020016000209081611ef79190613ad5565b505050565b611f96838383604051602401611f1493929190613ba7565b6040516020818303038152906040527f1c7ec448000000000000000000000000000000000000000000000000000000007bffffffffffffffffffffffffffffffffffffffffffffffffffffffff19166020820180517bffffffffffffffffffffffffffffffffffffffffffffffffffffffff8381831617835250505050611f9b565b505050565b60008151905060006a636f6e736f6c652e6c6f679050602083016000808483855afa5050505050565b60008073ffffffffffffffffffffffffffffffffffffffff16611fe6836118fc565b73ffffffffffffffffffffffffffffffffffffffff1614159050919050565b50505050565b50505050565b600080600090507a184f03e93ff9f4daa797ed6e38ed64bf6a1f010000000000000000831061206f577a184f03e93ff9f4daa797ed6e38ed64bf6a1f010000000000000000838161206557612064612e00565b5b0492506040810190505b6d04ee2d6d415b85acef810000000083106120ac576d04ee2d6d415b85acef810000000083816120a2576120a1612e00565b5b0492506020810190505b662386f26fc1000083106120db57662386f26fc1000083816120d1576120d0612e00565b5b0492506010810190505b6305f5e1008310612104576305f5e10083816120fa576120f9612e00565b5b0492506008810190505b612710831061212957612710838161211f5761211e612e00565b5b0492506004810190505b6064831061214c576064838161214257612141612e00565b5b0492506002810190505b600a831061215b576001810190505b80915050919050565b60006121858473ffffffffffffffffffffffffffffffffffffffff16612346565b156122de578373ffffffffffffffffffffffffffffffffffffffff1663150b7a026121ae611302565b8786866040518563ffffffff1660e01b81526004016121d09493929190613c3a565b6020604051808303816000875af192505050801561220c57506040513d601f19601f820116820180604052508101906122099190613c9b565b60015b61228e573d806000811461223c576040519150601f19603f3d011682016040523d82523d6000602084013e612241565b606091505b506000815103612286576040517f08c379a000000000000000000000000000000000000000000000000000000000815260040161227d906137b6565b60405180910390fd5b805181602001fd5b63150b7a0260e01b7bffffffffffffffffffffffffffffffffffffffffffffffffffffffff1916817bffffffffffffffffffffffffffffffffffffffffffffffffffffffff1916149150506122e3565b600190505b949350505050565b6122f58383612369565b6123026000848484612164565b612341576040517f08c379a0000000000000000000000000000000000000000000000000000000008152600401612338906137b6565b60405180910390fd5b505050565b6000808273ffffffffffffffffffffffffffffffffffffffff163b119050919050565b600073ffffffffffffffffffffffffffffffffffffffff168273ffffffffffffffffffffffffffffffffffffffff16036123d8576040517f08c379a00000000000000000000000000000000000000000000000000000000081526004016123cf90613d14565b60405180910390fd5b6123e181611fc4565b15612421576040517f08c379a000000000000000000000000000000000000000000000000000000000815260040161241890613d80565b60405180910390fd5b61242f600083836001612005565b61243881611fc4565b15612478576040517f08c379a000000000000000000000000000000000000000000000000000000000815260040161246f90613d80565b60405180910390fd5b6001600360008473ffffffffffffffffffffffffffffffffffffffff1673ffffffffffffffffffffffffffffffffffffffff16815260200190815260200160002060008282540192505081905550816002600083815260200190815260200160002060006101000a81548173ffffffffffffffffffffffffffffffffffffffff021916908373ffffffffffffffffffffffffffffffffffffffff160217905550808273ffffffffffffffffffffffffffffffffffffffff16600073ffffffffffffffffffffffffffffffffffffffff167fddf252ad1be2c89b69c2b068fc378daa952ba7f163c4a11628f55a4df523b3ef60405160405180910390a461258260008383600161200b565b5050565b6000604051905090565b600080fd5b600080fd5b60007fffffffff0000000000000000000000000000000000000000000000000000000082169050919050565b6125cf8161259a565b81146125da57600080fd5b50565b6000813590506125ec816125c6565b92915050565b60006020828403121561260857612607612590565b5b6000612616848285016125dd565b91505092915050565b60008115159050919050565b6126348161261f565b82525050565b600060208201905061264f600083018461262b565b92915050565b600081519050919050565b600082825260208201905092915050565b60005b8381101561268f578082015181840152602081019050612674565b60008484015250505050565b6000601f19601f8301169050919050565b60006126b782612655565b6126c18185612660565b93506126d1818560208601612671565b6126da8161269b565b840191505092915050565b600060208201905081810360008301526126ff81846126ac565b905092915050565b6000819050919050565b61271a81612707565b811461272557600080fd5b50565b60008135905061273781612711565b92915050565b60006020828403121561275357612752612590565b5b600061276184828501612728565b91505092915050565b600073ffffffffffffffffffffffffffffffffffffffff82169050919050565b60006127958261276a565b9050919050565b6127a58161278a565b82525050565b60006020820190506127c0600083018461279c565b92915050565b6127cf8161278a565b81146127da57600080fd5b50565b6000813590506127ec816127c6565b92915050565b6000806040838503121561280957612808612590565b5b6000612817858286016127dd565b925050602061282885828601612728565b9150509250929050565b61283b81612707565b82525050565b60006020820190506128566000830184612832565b92915050565b60008060006060848603121561287557612874612590565b5b6000612883868287016127dd565b9350506020612894868287016127dd565b92505060406128a586828701612728565b9150509250925092565b6000602082840312156128c5576128c4612590565b5b60006128d3848285016127dd565b91505092915050565b6128e58161261f565b81146128f057600080fd5b50565b600081359050612902816128dc565b92915050565b6000806040838503121561291f5761291e612590565b5b600061292d858286016127dd565b925050602061293e858286016128f3565b9150509250929050565b600080fd5b600080fd5b7f4e487b7100000000000000000000000000000000000000000000000000000000600052604160045260246000fd5b61298a8261269b565b810181811067ffffffffffffffff821117156129a9576129a8612952565b5b80604052505050565b60006129bc612586565b90506129c88282612981565b919050565b600067ffffffffffffffff8211156129e8576129e7612952565b5b6129f18261269b565b9050602081019050919050565b82818337600083830152505050565b6000612a20612a1b846129cd565b6129b2565b905082815260208101848484011115612a3c57612a3b61294d565b5b612a478482856129fe565b509392505050565b600082601f830112612a6457612a63612948565b5b8135612a74848260208601612a0d565b91505092915050565b60008060008060808587031215612a9757612a96612590565b5b6000612aa5878288016127dd565b9450506020612ab6878288016127dd565b9350506040612ac787828801612728565b925050606085013567ffffffffffffffff811115612ae857612ae7612595565b5b612af487828801612a4f565b91505092959194509250565b60008060408385031215612b1757612b16612590565b5b6000612b25858286016127dd565b9250506020612b36858286016127dd565b9150509250929050565b7f4e487b7100000000000000000000000000000000000000000000000000000000600052602260045260246000fd5b60006002820490506001821680612b8757607f821691505b602082108103612b9a57612b99612b40565b5b50919050565b7f4552433732313a20617070726f76616c20746f2063757272656e74206f776e6560008201527f7200000000000000000000000000000000000000000000000000000000000000602082015250565b6000612bfc602183612660565b9150612c0782612ba0565b604082019050919050565b60006020820190508181036000830152612c2b81612bef565b9050919050565b7f4552433732313a20617070726f76652063616c6c6572206973206e6f7420746f60008201527f6b656e206f776e6572206f7220617070726f76656420666f7220616c6c000000602082015250565b6000612c8e603d83612660565b9150612c9982612c32565b604082019050919050565b60006020820190508181036000830152612cbd81612c81565b9050919050565b7f4552433732313a2063616c6c6572206973206e6f7420746f6b656e206f776e6560008201527f72206f7220617070726f76656400000000000000000000000000000000000000602082015250565b6000612d20602d83612660565b9150612d2b82612cc4565b604082019050919050565b60006020820190508181036000830152612d4f81612d13565b9050919050565b600081905092915050565b7f46495253545f574f524400000000000000000000000000000000000000000000600082015250565b6000612d97600a83612d56565b9150612da282612d61565b600a82019050919050565b6000612db882612655565b612dc28185612d56565b9350612dd2818560208601612671565b80840191505092915050565b6000612de982612d8a565b9150612df58284612dad565b915081905092915050565b7f4e487b7100000000000000000000000000000000000000000000000000000000600052601260045260246000fd5b6000612e3a82612707565b9150612e4583612707565b925082612e5557612e54612e00565b5b828206905092915050565b7f4e487b7100000000000000000000000000000000000000000000000000000000600052603260045260246000fd5b7f4552433732313a20696e76616c696420746f6b656e2049440000000000000000600082015250565b6000612ec5601883612660565b9150612ed082612e8f565b602082019050919050565b60006020820190508181036000830152612ef481612eb8565b9050919050565b7f4552433732313a2061646472657373207a65726f206973206e6f74206120766160008201527f6c6964206f776e65720000000000000000000000000000000000000000000000602082015250565b6000612f57602983612660565b9150612f6282612efb565b604082019050919050565b60006020820190508181036000830152612f8681612f4a565b9050919050565b7f5345434f4e445f574f5244000000000000000000000000000000000000000000600082015250565b6000612fc3600b83612d56565b9150612fce82612f8d565b600b82019050919050565b6000612fe482612fb6565b9150612ff08284612dad565b915081905092915050565b7f54484952445f574f524400000000000000000000000000000000000000000000600082015250565b6000613031600a83612d56565b915061303c82612ffb565b600a82019050919050565b600061305282613024565b915061305e8284612dad565b915081905092915050565b60006130758285612dad565b91506130818284612dad565b91508190509392505050565b7f4d6178696d756d204e465420737570706c7920726561636865642e0000000000600082015250565b60006130c3601b83612660565b91506130ce8261308d565b602082019050919050565b600060208201905081810360008301526130f2816130b6565b9050919050565b60006131058286612dad565b91506131118285612dad565b915061311d8284612dad565b9150819050949350505050565b60008190508160005260206000209050919050565b6000815461314c81612b6f565b6131568186612d56565b945060018216600081146131715760018114613186576131b9565b60ff19831686528115158202860193506131b9565b61318f8561312a565b60005b838110156131b157815481890152600182019150602081019050613192565b838801955050505b50505092915050565b7f3c2f746578743e3c2f7376673e00000000000000000000000000000000000000600082015250565b60006131f8600d83612d56565b9150613203826131c2565b600d82019050919050565b600061321a828561313f565b91506132268284612dad565b9150613231826131eb565b91508190509392505050565b7f7b226e616d65223a202200000000000000000000000000000000000000000000600082015250565b6000613273600a83612d56565b915061327e8261323d565b600a82019050919050565b7f222c20226465736372697074696f6e223a20224120686967686c79206163636c60008201527f61696d656420636f6c6c656374696f6e206f6620737175617265732e222c202260208201527f696d616765223a2022646174613a696d6167652f7376672b786d6c3b6261736560408201527f36342c0000000000000000000000000000000000000000000000000000000000606082015250565b6000613331606383612d56565b915061333c82613289565b606382019050919050565b7f227d000000000000000000000000000000000000000000000000000000000000600082015250565b600061337d600283612d56565b915061338882613347565b600282019050919050565b600061339e82613266565b91506133aa8285612dad565b91506133b582613324565b91506133c18284612dad565b91506133cc82613370565b91508190509392505050565b7f646174613a6170706c69636174696f6e2f6a736f6e3b6261736536342c000000600082015250565b600061340e601d83612d56565b9150613419826133d8565b601d82019050919050565b600061342f82613401565b915061343b8284612dad565b915081905092915050565b600060408201905061345b600083018561279c565b6134686020830184612832565b9392505050565b7f4f776e61626c653a206e6577206f776e657220697320746865207a65726f206160008201527f6464726573730000000000000000000000000000000000000000000000000000602082015250565b60006134cb602683612660565b91506134d68261346f565b604082019050919050565b600060208201905081810360008301526134fa816134be565b9050919050565b7f4552433732313a207472616e736665722066726f6d20696e636f72726563742060008201527f6f776e6572000000000000000000000000000000000000000000000000000000602082015250565b600061355d602583612660565b915061356882613501565b604082019050919050565b6000602082019050818103600083015261358c81613550565b9050919050565b7f4552433732313a207472616e7366657220746f20746865207a65726f2061646460008201527f7265737300000000000000000000000000000000000000000000000000000000602082015250565b60006135ef602483612660565b91506135fa82613593565b604082019050919050565b6000602082019050818103600083015261361e816135e2565b9050919050565b60006136318284612dad565b915081905092915050565b6000604082019050818103600083015261365681856126ac565b90506136656020830184612832565b9392505050565b7f4f776e61626c653a2063616c6c6572206973206e6f7420746865206f776e6572600082015250565b60006136a2602083612660565b91506136ad8261366c565b602082019050919050565b600060208201905081810360008301526136d181613695565b9050919050565b7f4552433732313a20617070726f766520746f2063616c6c657200000000000000600082015250565b600061370e601983612660565b9150613719826136d8565b602082019050919050565b6000602082019050818103600083015261373d81613701565b9050919050565b7f4552433732313a207472616e7366657220746f206e6f6e20455243373231526560008201527f63656976657220696d706c656d656e7465720000000000000000000000000000602082015250565b60006137a0603283612660565b91506137ab82613744565b604082019050919050565b600060208201905081810360008301526137cf81613793565b9050919050565b7f4e487b7100000000000000000000000000000000000000000000000000000000600052601160045260246000fd5b600061381082612707565b915061381b83612707565b9250828201905080821115613833576138326137d6565b5b92915050565b600061384482612707565b915061384f83612707565b92508261385f5761385e612e00565b5b828204905092915050565b600061387582612707565b915061388083612707565b925082820261388e81612707565b915082820484148315176138a5576138a46137d6565b5b5092915050565b7f45524337323155524953746f726167653a2055524920736574206f66206e6f6e60008201527f6578697374656e7420746f6b656e000000000000000000000000000000000000602082015250565b6000613908602e83612660565b9150613913826138ac565b604082019050919050565b60006020820190508181036000830152613937816138fb565b9050919050565b60006020601f8301049050919050565b600082821b905092915050565b60006008830261398b7fffffffffffffffffffffffffffffffffffffffffffffffffffffffffffffffff8261394e565b613995868361394e565b95508019841693508086168417925050509392505050565b6000819050919050565b60006139d26139cd6139c884612707565b6139ad565b612707565b9050919050565b6000819050919050565b6139ec836139b7565b613a006139f8826139d9565b84845461395b565b825550505050565b600090565b613a15613a08565b613a208184846139e3565b505050565b5b81811015613a4457613a39600082613a0d565b600181019050613a26565b5050565b601f821115613a8957613a5a8161312a565b613a638461393e565b81016020851015613a72578190505b613a86613a7e8561393e565b830182613a25565b50505b505050565b600082821c905092915050565b6000613aac60001984600802613a8e565b1980831691505092915050565b6000613ac58383613a9b565b9150826002028217905092915050565b613ade82612655565b67ffffffffffffffff811115613af757613af6612952565b5b613b018254612b6f565b613b0c828285613a48565b600060209050601f831160018114613b3f5760008415613b2d578287015190505b613b378582613ab9565b865550613b9f565b601f198416613b4d8661312a565b60005b82811015613b7557848901518255600182019150602085019450602081019050613b50565b86831015613b925784890151613b8e601f891682613a9b565b8355505b6001600288020188555050505b505050505050565b60006060820190508181036000830152613bc181866126ac565b9050613bd06020830185612832565b613bdd604083018461279c565b949350505050565b600081519050919050565b600082825260208201905092915050565b6000613c0c82613be5565b613c168185613bf0565b9350613c26818560208601612671565b613c2f8161269b565b840191505092915050565b6000608082019050613c4f600083018761279c565b613c5c602083018661279c565b613c696040830185612832565b8181036060830152613c7b8184613c01565b905095945050505050565b600081519050613c95816125c6565b92915050565b600060208284031215613cb157613cb0612590565b5b6000613cbf84828501613c86565b91505092915050565b7f4552433732313a206d696e7420746f20746865207a65726f2061646472657373600082015250565b6000613cfe602083612660565b9150613d0982613cc8565b602082019050919050565b60006020820190508181036000830152613d2d81613cf1565b9050919050565b7f4552433732313a20746f6b656e20616c7265616479206d696e74656400000000600082015250565b6000613d6a601c83612660565b9150613d7582613d34565b602082019050919050565b60006020820190508181036000830152613d9981613d5d565b905091905056fe416e204e465420772f20494420257320686173206265656e206d696e74656420746f2025734142434445464748494a4b4c4d4e4f505152535455565758595a6162636465666768696a6b6c6d6e6f707172737475767778797a303132333435363738392b2fa2646970667358221220bf1bae514c08aa8a63e890afe6413b29dc5649818b911f5e4384012756d45c3664736f6c634300081200333c73766720786d6c6e733d27687474703a2f2f7777772e77332e6f72672f323030302f73766727207072657365727665417370656374526174696f3d27784d696e594d696e206d656574272076696577426f783d273020302033353020333530273e3c7374796c653e2e62617365207b2066696c6c3a2077686974653b20666f6e742d66616d696c793a2073657269663b20666f6e742d73697a653a20323470783b207d3c2f7374796c653e3c726563742077696474683d273130302527206865696768743d2731303025272066696c6c3d27626c61636b27202f3e3c7465787420783d273530252720793d273530252720636c6173733d27626173652720646f6d696e616e742d626173656c696e653d276d6964646c652720746578742d616e63686f723d276d6964646c65273e",
  "linkReferences": {},
  "deployedLinkReferences": {}
}